:10000000012883168601F93085008312FF308600AF
:10001000851D06280B2886011830860002308500D1
:100020008720850187203C308600023085008720AC
:10003000850187207E30860002308500872087205A
:1000400085018720FF3086000230850087208720C9
:100050008720850186018C018D0103308F0090007F
:100060008F1C352833288F0340280F183328382851
:10007000901C3D283B289003452810183B286A28EF
:1000800001308600051C40284A2880308600051E65
:1000900045284F28023085008720850154280230EA
:1000A00085008720850159287A20860D861F5428CF
:1000B0005E287A20860C061C592864287A20051AA6
:1000C0004F2862288C0A30287A2005184A28682888
:1000D0008D0A30280C080D0203197128031C74289E
:1000E00077283C30860094280F3086009428F03022
:1000F000860094280130910096309200FF309300E2
:10010000930B8028920B7E28910B7C2808000230EC
:10011000910096309200FF309300930B8D28920B44
:100120008B28910B892808008501851D94282A2891
:02400E00F93F78
:00000001FF
